:020000040800F2
:100000006005002045010008FD1F0008FF1F0008D3
:1000100003200008072000080B2000080000000053
:100020000000000000000000000000000F20000899
:10003000112000080000000013200008152000080F
:100040005F0100085F0100085F0100085F01000810
:100050005F0100085F01000893210008A921000842
:100060005F0100085F0100085F0100085F010008F0
:100070005F0100085F0100085F0100085F010008E0
:100080005F0100085F0100085F0100085F010008D0
:100090005F0100085F0100085F0100085F010008C0
:1000A0005F0100085F0100085F0100085F010008B0
:1000B0005F0100085F0100085F0100085F010008A0
:1000C0005F0100085F0100085F0100085F01000890
:1000D0005F0100085F0100082D2500085F0100088E
:1000E0005F0100085F0100085F0100085F01000870
:1000F0005F0100085F0100085F0100085F01000860
:100100005F0100085F0100085F0100085F0100084F
:10011000E12500084F2600089B3A00085F0100080F
:100120005F0100085F0100085F0100085F0100082F
:10013000DFF80CD004F0AAFF00480047F51F0008C4
:10014000600500200648804706480047FEE7FEE7B6
:10015000FEE7FEE7FEE7FEE7FEE7FEE7FEE7FEE777
:1001600047020008310100080CB500200190009002
:100170006C48006840F480306A49086000BF6948F4
:10018000006800F4003000900198401C0190009835
:1001900018B90198B0F5A06FF1D16248006800F479
:1001A000003010B10120009001E000200090009884
:1001B000012843D15C48006840F010005A490860AB
:1001C0000846006820F0030008600846006840F018
:1001D0000200086053484068524948600846406839
:1001E00048600846406840F48060486008464068BF
:1001F00020F47C1048600846406840F4E8104860ED
:100200000846006840F08070086000BF45480068FC
:1002100000F000700028F9D04248406820F0030048
:10022000404948600846406840F00200486000BF0E
:100230003C48406800F00C000828F9D10CBD10B50E
:10024000FFF792FF10BD10B53648006840F001007E
:1002500034490860084640683449084031494860DC
:1002600008460068324908402E4908600846006880
:1002700020F4802008600846406820F4FE004860B2
:100280004FF41F008860FFF7DAFF4FF00060294944
:10029000086010BD10B5002100200022214B5B68D2
:1002A00003F00C0121B1042906D0082928D107E068
:1002B000214B224C236027E01F4B204C236023E07E
:1002C000184B5B6803F47010164B5B6803F48032C4
:1002D000022303EB904022B9194B4343174C236090
:1002E0000DE0104B5B6803F4003323B1144B434320
:1002F000124C236003E0104B4343104C236003E097
:100300000D4B0E4C236000BF00BF064B5B68C3F370
:1003100003130C4CE15C094B1B68CB40074C23607A
:1003200010BD000000100240002002400000FFF855
:10033000FFFFF6FE08ED00E000127A00000000204A
:1003400000093D000400002031490143314A116099
:10035000704770B5002100230F22C47804B32D4CE0
:10036000246804F4E064C4F5E064210AC1F10403E4
:10037000CA40447804FA03F1847814402143090107
:10038000254C0678A155047804F01F050124AC40E3
:1003900005786D11AD0005F1E025C5F8004109E0D3
:1003A000047804F01F050124AC401C4D067876113A
:1003B00045F8264070BD1A4A0A400243154B1B1FE0
:1003C0001A60704739B1134A121D12680243114B6B
:1003D0001B1D1A6006E00F4A121D126882430D4B66
:1003E0001B1D1A607047042808D14FF0E0210969ED
:1003F00041F004014FF0E022116107E04FF0E021ED
:10040000096921F004014FF0E022116170470000FA
:100410000000FA050CED00E000E400E080E100E0FF
:1004200080FFFF1F10B5012000F0A2FC002000F0AB
:100430009FFC10BD2A49086070472949091F0860C0
:100440007047274984310860704701460020254ADB
:1004500010884FF67F4210400843224A10807047B0
:10046000014600201F4A10884FF680721040084352
:100470001C4A1080704708B500220092194A2C3A95
:100480000092009A02440092009A116008BD08B5DB
:1004900001460020009013482C3800900098084432
:1004A00000900098008808BD0D489C300068C0B2DC
:1004B00070470C480830008840F0010009490831B5
:1004C000088070470648A0300068C0B270470548F1
:1004D0000830008840F00200024908310880704767
:1004E00004860D422C6C0040002044490860091D20
:1004F0000860091D0860091D086041483F49143122
:100500000860704700213D498279002A3AD00A46A6
:10051000126803689A430B461A600A1D1268036842
:100520009A430B1D1A60027911440A6803681A4342
:100530000A60324A0832126803689A432F4B083324
:100540001A601A1D126803689A432C4B0C331A6008
:100550004279102A0ED11A1F126803681A43274BDA
:1005600008331A601A1D126803681A43234B0C33B0
:100570001A600DE02149427911440A6803681A4360
:100580000A6005E0027911440A6803689A430A6028
:1005900070470021016001710C21417100218171BE
:1005A00070471649103109680143144A103211602E
:1005B000704701460020114A143212680A400AB1FD
:1005C000012000E0002070470C491431086070479A
:1005D000014600200022094B1B6803EA0102074B79
:1005E00014331B680B4013B10AB1012000E0002056
:1005F0007047024914310860704700000004014050
:10060000FFFF0F0010B50446CC48844208D10121F9
:10061000042000F093FB0021042000F08FFB46E053
:10062000C748844208D10121082000F087FB00213F
:10063000082000F083FB3AE0C248844208D101213F
:10064000102000F07BFB0021102000F077FB2EE053
:10065000BD48844208D10121202000F06FFB002119
:10066000202000F06BFB22E0B848844208D1012131
:10067000402000F063FB0021402000F05FFB16E00B
:10068000B348844208D10121802000F057FB0021AB
:10069000802000F053FB0AE0AE48844207D10121DC
:1006A000801500F04BFB0021A01500F047FB10BDAA
:1006B00010B50121084600F041FB0021012000F0A7
:1006C0003DFB10BD2DE9F04102460025002600202B
:1006D00000230024002791F803C00CF00F0591F8C7
:1006E00003C00CF0100CBCF1000F03D091F802C055
:1006F0004CEA050591F800C0BCF1000F31D0146838
:1007000000202BE04FF0010C0CFA00F3B1F800C010
:100710000CEA03069E4220D183004FF00F0C0CFA26
:1007200003F7BC4305FA03FC4CEA040491F803C048
:10073000BCF1280F06D14FF0010C0CFA00FCC2F8F6
:1007400014C00AE091F803C0BCF1480F05D14FF086
:10075000010C0CFA00FCC2F810C0401C0828D1D3D0
:100760001460B1F800C0BCF1FF0F34DD5468002004
:100770002EE000F1080C4FF0010808FA0CF3B1F874
:1007800000C00CEA03069E4221D183004FF00F0CFB
:100790000CFA03F7BC4305FA03FC4CEA040491F895
:1007A00003C0BCF1280F05D100F1080C08FA0CF8C1
:1007B000C2F8148091F803C0BCF1480F07D100F1D2
:1007C000080C4FF0010808FA0CF8C2F81080401C21
:1007D0000828CED35460BDE8F0814FF6FF71018048
:1007E000022181700421C170704702460020936885
:1007F0000B400BB1012000E00020704701468868E3
:1008000080B2704702460020D3680B400BB1012034
:1008100000E0002070470146C86880B2704701615F
:100820007047416170470AB1016100E04161704762
:10083000C16070474FF480320A43826181618261F6
:1008400082698269704702460020434B18684FF660
:100850008073184040EA021008433F4B186070470D
:100860003E49C8617047F0B50A46002300240021C4
:10087000002500F00046B6F1004F02D1364EF16976
:1008800001E0354E7168C0F3034583B200F44016B1
:10089000B6F5401F08D121F070612F4E766826F022
:1008A00070662D4F7E6012E000F48016B6F5801F52
:1008B00006D1032606FA05F4A14341F0706106E073
:1008C000460D360103FA06F6B14341F0706122B1DC
:1008D000460D360103FA06F6314300F00046B6F144
:1008E000004F02D11C4EF16101E01B4E7160F0BD62
:1008F00030B500228B071C0F0F2303FA04F2164BAE
:1009000008338C1053F824309343134C08348D1063
:1009100044F8253023468C1053F824308C07240FDC
:1009200000FA04F423430C4C08348D1044F82530AD
:1009300030BD0A49DC310860704700000008014002
:10094000000C01400010014000140140001801405B
:10095000001C014000200140000001400000204236
:1009600010B50121080700F0F6F900214FF0805082
:1009700000F0F1F910BD2A49086270472849086162
:10098000704701460020274A106820F0E000084325
:10099000106070472249A0310860704710B50246C8
:1009A0000020204B186820F00300104318601E4BF5
:1009B0001B6843F004031C4C2360012901D130BFA4
:1009C00000E020BF184B1B6823F00403164C236083
:1009D00010BD1448006840F0040012490860084641
:1009E000006840F0020008600F48006840F0040012
:1009F0000D49086000BF00BF30BF704701460020AE
:100A0000084A52680A400AB1012000E000207047FD
:100A10000449096841EA8001024A116070470000F8
:100A200000000E420070004010ED00E0DF4800685A
:100A300040F00100DD49086008464068DC49084094
:100A4000DA49486008460068DA490840D749086032
:100A50000846006820F4802008600846406820F4BA
:100A6000FE0048604FF41F0088607047CF49096856
:100A700021F48031CD4A11601146096821F48021AA
:100A80001160B0F5803F03D0B0F5802F0ED106E0A5
:100A9000C649096841F48031C44A116007E0C3497E
:100AA000096841F4A021C14A116000E000BF00BF05
:100AB000704710B501460022002300204A11012A88
:100AC00002D1BA4C236806E0022A02D1B74C236A4D
:100AD00001E0B64C636A01F01F02012494401C40FF
:100AE0000CB1012000E0002010BD38B500200090BE
:100AF0000024002500BF3120FFF7DBFF05460098EA
:100B0000401C00900098B0F5A06F01D0002DF2D0ED
:100B10003120FFF7CEFF08B1012400E00024204679
:100B200038BD01460020A14A106820F0F80040EAD4
:100B3000C10010607047A04908607047024600205D
:100B40009A4B586820F47C1042EA01031843974BF3
:100B50005860704798490866704701460020934ADC
:100B6000506820F003000843506070478F48406889
:100B700000F00C007047014600208C4A506820F0BD
:100B8000F00008435060704701460020874A5068D3
:100B900020F4E06008435060704701460020834A1B
:100BA000506820F4605040EAC1005060704729B19D
:100BB0007E4A527A02437D4B5A7204E07B4A527A53
:100BC00082437A4B5A7270477B49D831086070472C
:100BD00001460020754A506820F4404008435060A8
:100BE00070470021714A20321170704A82F820103B
:100BF000012802D004280AD104E001216B4A2032E6
:100C0000117005E00521694A2032117000E000BF33
:100C100000BF70476949086070476449096A014329
:100C2000624A11627047654944390860704730B5BF
:100C300000210022002400235C4D6D6805F00C01AA
:100C400021B1042905D0082923D105E05C4D0560B8
:100C500022E05B4D05601FE0544D6D6805F4701295
:100C6000524D6D6805F48034022505EB92421CB9A3
:100C7000544D554305600BE04C4D6D6805F400354F
:100C80001DB1504D5543056002E04D4D5543056083
:100C900002E04B4D056000BF00BF444D6D6805F09C
:100CA000F0010909484D6B5C0568DD4045603F4D2A
:100CB0006D6805F4E061090A434D6B5C4568DD40F1
:100CC00085603A4D6D6805F46051C90A3E4D6B5C14
:100CD0004568DD40C560354D6D6805F44041890BC0
:100CE0003A4D6B5CC568B5FBF3F5056130BD29B1C4
:100CF0002E4A526902432D4B5A6104E02B4A526935
:100D000082432A4B5A61704729B1284A92690243AB
:100D1000264B9A6104E0254A92698243234B9A61EB
:100D2000704729B1214AD2690243204BDA6104E0BD
:100D30001E4AD26982431D4BDA61704729B11B4AB2
:100D4000D2680243194BDA6004E0184AD268824341
:100D5000164BDA60704729B1144A12690243134BEB
:100D60001A6104E0114A12698243104B1A617047FC
:100D700012494039086070470F49C86470470B49F1
:100D8000C87170470948406A40F08070074948625E
:100D9000704701460020054A92680A400AB10120C6
:100DA00000E000207047014988727047001002403F
:100DB0000000FFF8FFFFF6FE0000424280044242BE
:100DC00000127A0000093D001400002024000020D9
:100DD00010B50446FE48844208D10121C014FFF733
:100DE000ADFF0021E014FFF7A9FFC4E0B4F1804F8C
:100DF00008D101210846FFF7AEFF00210120FFF7CF
:100E0000AAFFB8E0F348844208D101210220FFF78D
:100E1000A2FF00210220FFF79EFFACE0EE488442D3
:100E200008D101210420FFF796FF00210420FFF7DD
:100E300092FFA0E0E948844208D101210820FFF791
:100E40008AFF00210820FFF786FF94E0E4488442EF
:100E500008D101211020FFF77EFF00211020FFF7AD
:100E60007AFF88E0DF48844208D101212020FFF783
:100E700072FF00212020FFF76EFF7CE0DA488442F9
:100E800008D101214014FFF759FF00216014FFF73A
:100E900055FF70E0D548844209D10121C804FFF70D
:100EA0004DFF00214FF40020FFF748FF63E0D048DA
:100EB000844209D101210805FFF740FF00214FF4CA
:100EC0008010FFF73BFF56E0CA48844209D1012158
:100ED0004805FFF733FF00214FF40010FFF72EFF06
:100EE00049E0C548844208D101214020FFF733FF83
:100EF00000214020FFF72FFF3DE0C048844208D189
:100F000001218020FFF727FF00218020FFF723FF2A
:100F100031E0BB48844208D101218015FFF71BFF57
:100F20000021A015FFF717FF25E0B648844209D13C
:100F300001210804FFF702FF00214FF48030FFF782
:100F4000FDFE18E0B048844209D101214804FFF7B2
:100F5000F5FE00214FF40030FFF7F0FE0BE0AB4848
:100F6000844208D101218804FFF7E8FE00214FF4F4
:100F70008020FFF7E3FE10BD00220288944B9842C8
:100F80000ED0994B98420BD0B0F1804F08D0914BC6
:100F9000984205D0904B984202D0904B984204D191
:100FA0004FF68F731A404B881A438D4B984207D0E7
:100FB0008C4B984204D04FF6FF431A40CB881A431B
:100FC00002808B8883850B880385814B98420BD0E8
:100FD000854B984208D08B4B984205D08A4B98425B
:100FE00002D08A4B984201D10B7A03860123838277
:100FF000704770B5002400220023058C4FF6FE7662
:1010000035400584028C8388048B4FF68F752C4005
:10101000B51E2C400D882C43751E2A400D892A438D
:101020004D882A436A4DA8420BD06F4DA84208D084
:10103000744DA84205D0744DA84202D0734DA84209
:1010400013D14FF6F7752A404D892A434FF6FB75A9
:101050002A408D882A434FF6FF652B404FF6FF55F7
:101060002B408D892B43CD892B4383800483CD88EE
:101070008586028470BD70B5002400220023058C93
:101080004FF6EF7635400584028C8388048B48F652
:10109000FF752C404FF6FF452C400D884FF6FF762C
:1010A00006EA05252C434FF6DF752A400D8906EA2E
:1010B00005152A434D8806EA05152A43444DA842E2
:1010C00002D0494DA8421DD14FF67F752A404D8967
:1010D0004FF6FF7606EA05152A434FF6BF752A40FC
:1010E0008D8806EA05152A434FF6FF352B404FF24F
:1010F000FF752B408D8906EA85052B43CD8906EACD
:1011000085052B4383800483CD880587028470BDC9
:1011100070B5002400220023058C4FF6FF66354091
:101120000584028C8388848B4FF68F752C404FF694
:10113000FC752C400D882C434FF6FF552A400D8935
:101140004FF6FF7606EA05252A434D8806EA05256F
:101150002A431F4DA84202D0234DA8421DD14FF271
:10116000FF752A404D894FF6FF7606EA05252A438A
:101170004FF6FF352A408D8806EA05252A434EF6AC
:10118000FF752B404DF6FF752B408D8906EA05153E
:101190002B43CD8906EA05152B4383808483CD88B4
:1011A0008587028470BD70B5002200230024058C61
:1011B0004EF6FF7635400584038C8488828B48F692
:1011C000FF752A404FF6FF452A400D8820E00000B9
:1011D000002C01400004004000080040000C0040CA
:1011E000001000400014004000340140004C014059
:1011F000005001400054014000180040001C004015
:1012000000200040004001400044014000480140EF
:101210004FF6FF7606EA05252A434DF6FF752B406B
:101220000D8906EA05352B434D8806EA05352B4323
:10123000FA4DA84202D0FA4DA84208D14BF6FF75EC
:101240002C408D894FF6FF7606EA85152C43848065
:101250008283CD88A0F84050038470BD828B4FF20A
:10126000FF331A408283828B4FF6FF7303EA012318
:101270001A4382837047F0B50C46154600220021C0
:101280000026078C4EF6FF7C07EA0C070784828B4A
:10129000018C4FF6FF7707EA043640F6FF473A40E5
:1012A0004FF6FF7707EA05273A434FF6FF7707EA3D
:1012B00003373A43D94FB8420ED0D94FB8420BD07A
:1012C000B0F1804F08D0D74FB84205D0D64FB842C2
:1012D00002D0D64FB84206D14DF6FF77394046F4DA
:1012E0008057394305E047F6FF57394044F48057AB
:1012F000394382830184F0BD828B4FF6F3731A4029
:101300008283828B0A4382837047F0B50C46154670
:10131000002200210026078C4FF6FF6C07EA0C071D
:101320000784828B018C4FF6FF7707EA04264FF67D
:101330000C773A404FF6FF7707EA03172F433A43FB
:10134000B64FB8420ED0B64FB8420BD0B0F1804F76
:1013500008D0B44FB84205D0B34FB84202D0B34F13
:10136000B84206D14FF6FF57394046F480773943EB
:1013700005E04FF2FF57394044F4807739438283C8
:101380000184F0BD028B4FF2FF331A400283028BBF
:101390004FF6FF7303EA01231A4302837047F0B547
:1013A0000C461546002200210026078C4FF6EF7CE4
:1013B00007EA0C070784028B018C4FF6FF7707EAD8
:1013C000041640F6FF473A404FF6FF7707EA033727
:1013D0003A434FF6FF7707EA05273A438F4FB84263
:1013E0000ED08F4FB8420BD0B0F1804F08D08D4F48
:1013F000B84205D08C4FB84202D08C4FB84206D1CB
:101400004FF6DF77394046F01007394305E04FF6D5
:101410005F77394044F01007394302830184F0BDFF
:10142000028B4FF6F3731A400283028B0A43028346
:101430007047F0B50C46154600220021068C4FF689
:10144000FE773E400684028B018C4FF60C763240CC
:101450007E1C06EA03162E433243704EB0420ED075
:101460006F4EB0420BD0B0F1804F08D06D4EB042FD
:1014700005D06D4EB04202D06C4EB04206D14FF650
:10148000FD76314044F00106314305E04FF6F57634
:10149000314044F00106314302830184F0BD70B550
:1014A00005460C465D4885420ED05D4885420BD00E
:1014B000B5F1804F08D05B48854205D05A48854237
:1014C00002D05A48854200D100E000BF208850B9C0
:1014D0002389A28861882846FFF7ABFFE188284668
:1014E000FFF79EFF25E0208804280AD12389A288DF
:1014F00061882846FFF753FFE1882846FFF742FF3F
:1015000017E0208808280AD12389A2886188284604
:10151000FFF7FBFEE1882846FFF7EEFE09E023898E
:10152000A28861882846FFF7A6FEE1882846FFF7D3
:1015300095FE70BD2DE9F04105460C4600260127B9
:10154000608808B9022600E00026A088012801D1A1
:10155000022700E001272088A0B92389A28861889A
:101560002846FFF766FFE1882846FFF759FF2389E1
:101570003A4631462846FFF712FFE1882846FFF732
:1015800001FF13E02389A28861882846FFF707FF3F
:10159000E1882846FFF7F6FE23893A463146284679
:1015A000FFF747FFE1882846FFF73AFFBDE8F081E3
:1015B0000A884B881A438B881A43CB881A430B89B5
:1015C0001A434B891A438B891A43A0F84420704769
:1015D0004FF6FF71818000210180C180418001723E
:1015E00070470021018041808180C180018141815B
:1015F0008181C1817047002101804180012181806A
:101600000021C180018170470021018041808180DB
:10161000C18001814181818170470000002C01401F
:10162000003401400004004000080040000C00406D
:1016300021B1028842F00102028004E002884FF6E4
:10164000FE731A400280704731B1B0F8442042F472
:101650000042A0F8442005E0B0F84420C2F30E0296
:10166000A0F8442070471AB183890B43838102E0BC
:1016700083898B43838170478182704741EA0203EB
:10168000A0F8483070471AB183890B43838102E088
:1016900083898B438381704701894FF6F87211402B
:1016A000018170470A46002101894FF68F73194066
:1016B00011430181704730B504460D462946204646
:1016C000FFF7F0FF208940F00700208130BD2DE9B1
:1016D000F04104460D4616461F46602D06D13B4696
:1016E000012231462046FFF75AFE05E03B46012223
:1016F00031462046FFF79DFE29462046FFF7D2FFE0
:10170000208940F007002081BDE8F08130B50C460B
:1017100000210189C9B24FF6FF7505EA032515437B
:1017200025432943018130BD2DE9F04105460E4690
:1017300017469846002443463A4631462846FFF766
:10174000E5FF2C894FF6F870044044F007044FF68B
:101750008F70044044F070042C81BDE8F081F0B536
:1017600004460D4616461F463B463246294620464D
:10177000FFF7CCFF208940F480402081F0BD018537
:10178000828270470A46002101884FF68F73194004
:10179000114301807047F0B50C4615461E460021E6
:1017A000002200230189028B038C4FF6F877394021
:1017B00021434FF6FC473A4040F201173A434FF6B7
:1017C000DD773B404FF6FF7707EA06172F433B4391
:1017D000018102830384F0BD0A460021018B4FF68C
:1017E0008F7319401143018370470A460021018B12
:1017F00048F6FF7319404FF6FF7303EA02231943BB
:10180000018370470A460021818B4FF68F73194080
:101810001143818370470A460021818B48F6FF738C
:1018200019404FF6FF7303EA02231943818370477F
:1018300021B1028842F08002028004E002884FF663
:101840007F731A400280704721B1828842F00402FF
:10185000828004E082884FF6FB731A4082807047D2
:1018600021B1828842F00802828004E082884FF62B
:10187000F7731A408280704721B1828842F00102DA
:10188000828004E082884FF6FE731A40828070479F
:101890000A460021018B4FF6F7731940114301836B
:1018A00070470A460021018B4FF2FF7319404FF633
:1018B000FF7303EA02231943018370470A4600219C
:1018C000818B4FF6F77319401143818370470A46A5
:1018D0000021818B4FF2FF7319404FF6FF7303EA2B
:1018E00002231943818370470A460021018B4FF67A
:1018F000FB7319401143018370470A460021018B95
:101900004FF6FF3319404FF6FF7303EA02231943E2
:10191000018370470A460021818B4FF6FB73194003
:101920001143818370470A460021818B4FF6FF33B4
:1019300019404FF6FF7303EA02231943818370476E
:101940000A460021018B4FF67F7319401143018332
:1019500070470A460021018BC1F30E014FF6FF7359
:1019600003EA02231943018370470A460021818B51
:101970004FF67F7319401143818370470A46002157
:10198000818BC1F30E014FF6FF7303EA0223194363
:10199000818370470A460021018C4FF6FD73194080
:1019A0001143018470470A460021018C4FF6F773FA
:1019B00019401143018470470A460021018C4FF6FB
:1019C000DF7319404FF6FF7303EA021319430184D2
:1019D00070470A460021018C4FF67F7319404FF67D
:1019E000FF7303EA02131943018470470A4600217A
:1019F000018C4FF6FF5319404FF6FF7303EA0223A1
:101A00001943018470470A460021018C4FF2FF738D
:101A100019404FF6FF7303EA02231943018470470C
:101A20000A460021018C4DF6FF7319404FF6FF73F3
:101A300003EA023319430184704730B500230124BF
:101A40008C40A3B2048C9C430484048C02FA01F5FC
:101A5000ADB22C43048430BD30B5002304248C4047
:101A6000A3B2048C9C430484048C02FA01F5ADB249
:101A70002C43048430BD70B5034600200024184672
:101A8000183001258D40ACB21D8CA5431D8409B1D1
:101A9000082909D100EB6100056825F07005056093
:101AA0000568154305600EE00D1FC5F34E0528447B
:101AB000056825F4E045056005684FF6FF7606EAFF
:101AC00002263543056070BD21B1028842F0020252
:101AD000028004E002884FF6FD731A4002807047CE
:101AE00021B1028842F00402028004E002884FF62D
:101AF000FB731A400280704721B1828842F0800255
:101B0000828004E082884FF67F731A40828070479B
:101B100002884FF6F7731A40028002880A43028057
:101B2000704782884FF68F731A40828082880A43FA
:101B30008280704702894FF6F8731A400281028949
:101B40000A430281704702894FF67F731A4002816F
:101B500002890A43028170478184704781857047FA
:101B6000818670470187704781877047A0F84010D1
:101B7000704702884FF6FF431A40028002880A43EA
:101B8000028070470146888E70470146088F704773
:101B90000146888F70470146B1F840007047014602
:101BA000888C70470146088D704702460020138AD2
:101BB0000B400BB1012000E000207047CA430282B5
:101BC000704730B50246002000230024158A05EA3C
:101BD0000103958905EA010413B10CB1012000E06D
:101BE000002030BDCA4302827047000010B5044691
:101BF000FB48844209D101218803FFF79FF80021A7
:101C00004FF48040FFF79AF832E0F648844209D159
:101C100001214804FFF79FF800214FF40030FFF73F
:101C20009AF825E0F048844209D101218804FFF7A1
:101C300092F800214FF48020FFF78DF818E0EB4870
:101C4000844209D10121C804FFF785F800214FF42F
:101C50000020FFF780F80BE0E548844208D101211D
:101C60000805FFF778F800214FF48010FFF773F8AC
:101C700010BD2DE9F04786B005460E460024A24669
:101C800000BFA1460027B08900B100BF2F462C8AB3
:101C90004CF6FF700440F08804432C82AC894EF669
:101CA000F3100440B0883189084371890843044324
:101CB000AC81AC8A4FF6FF400440B0890443AC824B
:101CC00001A8FEF7B4FFC648874202D1DDF810A094
:101CD00001E0DDF80CA0A88900F4004040B10AEB57
:101CE000CA0000EB0A1031684900B0FBF1F807E0C8
:101CF0000AEBCA0000EB0A1031688900B0FBF1F86A
:101D00006420B8FBF0F004012009642101FB108974
:101D1000A88900F4004040B1322000EBC900B0FBBC
:101D2000F1F000F00700044308E0322000EB091056
:101D30006421B0FBF1F000F00F0004432C8106B0E9
:101D4000BDE8F0874FF41651016000218180C18009
:101D500001810C21418100218181704710B502462B
:101D60000020108A4FF2FF0318400B884C88234351
:101D70008C882343CC8823431843108210BD002154
:101D8000018041808180C180704721B1828942F405
:101D90000052828104E082894DF6FF731A408281ED
:101DA0007047F0B50346002400260025002040F6C9
:101DB0006A17B94200D100BF1846C1F3421401F0BE
:101DC0001F06012707FA06F5012C01D10C3004E0AB
:101DD000022C01D1103000E014301AB107682F43F3
:101DE000076002E00768AF430760F0BD1AB1838A5D
:101DF0000B43838202E0838A8B4383827047028A8B
:101E00004FF6F0731A400282028A0A430282704738
:101E100082894FF2FF731A40828182890A4382814C
:101E2000704721B1828942F00202828104E08289F6
:101E30004FF6FD731A4082817047028A4FF6DF73B6
:101E40001A400282028A0A430282704721B1028A42
:101E500042F48042028204E0028A4BF6FF731A4089
:101E600002827047C1F30802828070470146888869
:101E7000C0F308007047818941F0010181817047FA
:101E8000028BD2B20283028B42EA012202837047A4
:101E9000028B02F47F420283028B0A430283704763
:101EA00021B1828A42F02002828204E0828A4FF6C7
:101EB000DF731A408282704721B1828A42F0100299
:101EC000828204E0828A4FF6EF731A408282704762
:101ED00021B1828A42F00802828204E0828A4FF6AF
:101EE000F7731A408282704721B1828942F400421E
:101EF000828103E08289C2F30E028281704721B1A0
:101F0000828A42F40062828204E0828A4FF2FF7386
:101F10001A4082827047828A4FF6FB731A4082828F
:101F2000828A0A438282704721B1828A42F0020289
:101F3000828204E0828A4FF6FD731A4082827047E3
:101F400002460020B1F5007F00D100BF13880B408E
:101F50000BB1012000E00020704701F40072B2F5DF
:101F6000007F00D100BFCA430280704770B50246AF
:101F7000002400230025002040F66A16B14200D15B
:101F800000BFC1F3421501F01F03012606FA03F357
:101F9000012D02D19689334006E0022D02D1168A26
:101FA000334001E0968A33400C12012606FA04F40D
:101FB0001688344013B10CB1012000E0002070BD40
:101FC00010B50022002340F66A14A14200D100BFE0
:101FD0000A1201249440A3B2DC43048010BD000027
:101FE000003801400044004000480040004C0040E0
:101FF0000050004000F073FC00BFFEE7704700BFD8
:10200000FEE700BFFEE700BFFEE700BFFEE7704748
:10201000704770477047000008B501210820FEF79F
:1020200073FE4FF48050ADF8000010208DF80300CF
:1020300003208DF8020069461748FEF743FB4FF472
:102040000050ADF8000010208DF8030003208DF83B
:10205000020069461048FEF735FB4FF48040ADF8AA
:10206000000010208DF8030003208DF8020069465F
:102070000948FEF727FB4FF480510748FEF7CFFBD6
:102080004FF400510448FEF7CAFB4FF48041024868
:10209000FEF7C5FB08BD0000000C014008B501219A
:1020A0001020FEF731FE4FF40050ADF80000102074
:1020B0008DF8030003208DF8020069460448FEF7FE
:1020C00001FB4FF400510248FEF7ABFB08BD0000D6
:1020D0000010014008B506208DF8000003208DF89F
:1020E000010000208DF8020001208DF803006846F1
:1020F000FEF72FF907208DF8000003208DF801006E
:1021000001208DF802008DF803006846FEF721F9E2
:1021100008BD0EB501211020FEF7F6FDFFF7DAFF2E
:102120000120ADF8080004208DF80B0002A9244816
:10213000FEF7C8FA00210220FEF7DAFB012000902A
:1021400000208DF8040008208DF8050001208DF88E
:1021500006006846FEF7D6F90220ADF80800042014
:102160008DF80B0002A91648FEF7ACFA01210220F7
:10217000FEF7BEFB0220009000208DF8040008202E
:102180008DF8050001208DF806006846FEF7BAF9C3
:102190000EBD10B50120FEF71BFA20B10120094940
:1021A0000870FEF726FA10BD10B50220FEF710FAEF
:1021B00028B10120044908700220FEF71AFA10BD68
:1021C00000100140280000202900002008B526202A
:1021D0008DF8000001208DF8010002208DF802002A
:1021E00001208DF803006846FEF7B3F808BD08B576
:1021F00027208DF8000001208DF8010003208DF8C4
:10220000020001208DF803006846FEF7A2F808BD21
:1022100008B535208DF8000002208DF8010003205C
:102220008DF8020001208DF803006846FEF791F852
:1022300008BD08B534208DF8000001208DF801009C
:102240008DF802008DF803006846FEF782F808BD9D
:1022500000B585B001210420FEF756FD0121480498
:10226000FEF75FFD0420ADF8100018208DF8130074
:1022700003208DF8120004A9FD48FEF723FA082078
:10228000ADF8100004208DF8130004A9F848FEF7FB
:1022900019FAF84800900020ADF80400ADF80600E7
:1022A000ADF80800ADF80C000C20ADF80A00694646
:1022B000F148FFF7DEFCFFF789FF0121EE48FFF749
:1022C00064FD05B000BD00B585B001210820FEF712
:1022D0001BFD01218804FEF724FD4FF48060ADF85A
:1022E000100018208DF8130003208DF8120004A9A7
:1022F000E248FEF7E7F94FF40060ADF81000042063
:102300008DF8130004A9DD48FEF7DCF94FF4E13045
:1023100000900020ADF80400ADF80600ADF808000C
:10232000ADF80C000C20ADF80A006946D448FFF760
:10233000A0FCFFF75CFF0121D148FFF726FD05B0A7
:1023400000BD00B585B001211020FEF7DDFC0121A4
:10235000C804FEF7E6FC4FF48060ADF810001820CA
:102360008DF8130003208DF8120004A9C548FEF76C
:10237000A9F94FF40060ADF8100004208DF81300A7
:1023800004A9C048FEF79EF94FF4E1300090002008
:10239000ADF80400ADF80600ADF80800ADF80C008B
:1023A0000C20ADF80A006946B748FFF762FCFFF75A
:1023B00040FF0121B448FFF7E8FC05B000BD00B5BF
:1023C00085B001211020FEF79FFC01212020FEF79F
:1023D0009BFC01210805FEF7A4FC4FF48050ADF8EA
:1023E000100018208DF8130003208DF8120004A9A6
:1023F000A448FEF767F90420ADF810008DF813002B
:1024000004A9A248FEF75EF94FF4E13000900020E5
:10241000ADF80400ADF80600ADF80800ADF80C000A
:102420000C20ADF80A0069469948FFF722FCFFF737
:10243000EFFE01219648FFF7A8FC05B000BD70B57E
:1024400004460D4629462046FFF70CFD00BF8021BB
:102450002046FFF775FD0028F9D070BD2DE9F04149
:1024600007460D461646002405E0295D3846FFF76D
:10247000E6FF601CC4B2B442F7DB00BF402138461F
:10248000FFF75EFD0028F9D0BDE8F08170B5064683
:102490000C46002500BF615D3046FFF7D0FF6D1C84
:1024A000605D0028F7D100BF40213046FFF748FDAE
:1024B0000028F9D070BD2DE9F04105460C46260AEA
:1024C000E7B231462846FFF7CDFC00BF8021284601
:1024D000FFF736FD0028F9D039462846FFF7C2FC41
:1024E00000BF80212846FFF72BFD0028F9D0BDE86A
:1024F000F08170B504460D46E1B26548FFF7B2FCC5
:1025000000BF80216248FFF71BFD0028F9D020465C
:1025100070BD10B5044600BF20215D48FFF710FDD7
:102520000028F9D05A48FFF7A1FC10BD10B540F2C1
:1025300025515148FFF71AFD002850D04E48FFF7AB
:1025400095FCC4B24FF480514C48FEF768F94FF443
:1025500000514A48FEF763F94FF480414748FEF7BF
:1025600060F94C48007810B1012820D10FE0AA2C66
:1025700009D1494847490978445446480078401CE5
:102580004449087002E000204249087026E0AF2C60
:1025900009D141483F49097844543E480078401CDD
:1025A0003C49087002E000203A49087016E03948BA
:1025B00000780E2808DA38483649097844543548F6
:1025C0000078401C33490870324800780E2804D146
:1025D00000F064FE00202F49087000BF00BF10BD4E
:1025E00010B540F225512848FFF7C0FC70B32648CB
:1025F000FFF73CFCC4B2A4F13000082821D2DFE888
:1026000000F01D040B0F1320171A244801F08DFD54
:1026100023A002F079FD14E0204801F08FFD10E0C6
:102620001E4801F0A9FD0CE01C4801F098FD08E0EF
:1026300001F0AFFD05E001F0EAFD02E001F025FE4A
:1026400000BF00BF21461048FFF70CFC10BD10B5BD
:1026500040F225510E48FFF789FC38B10C48FFF7CE
:1026600005FCC4B221460A48FFF7FCFB10BD000080
:102670000008014020A1070000440040000C014078
:102680000048004000100140004C00400014014090
:1026900000500040340000201E010020000048428D
:1026A0006E6968616F00000010B56FF00400FDF7FF
:1026B0009AFE2E4800682E49B0FBF1F02D490870B3
:1026C0000846007800EB4001C1EBC0104FF6FF71E7
:1026D00001EAC0002849088010BD0146254A127849
:1026E0004A434FF0E0235A6100229A611A46126968
:1026F00042F001021A6100BF4FF0E022106900F0C1
:1027000001021AB100F48032002AF5D04FF0E02225
:10271000126922F001024FF0E0231A6100229A614F
:1027200070470146144A12884A434FF0E0235A6129
:1027300000229A611A46126942F001021A6100BF32
:102740004FF0E022106900F001021AB100F480326B
:10275000002AF5D04FF0E022126922F001024FF07A
:10276000E0231A6100229A617047000000000020F7
:1027700000127A003600002038000020002088492E
:10278000086088490860884908608849086070477F
:1027900010B5874801F0E3FC00BF814800686FF482
:1027A0004D718842F9DAFFF7E9FF01F06EFD4FF451
:1027B0007A70FFF7B6FF7E4801F0B7FC00BF78489B
:1027C0000068B0F51B7FFADDFFF7D8FF01F05DFD73
:1027D0004FF47A70FFF7A5FF01F019FD744801F07E
:1027E000BEFC00BF6E48006872498842FADAFFF703
:1027F000C5FF01F04AFD4FF47A70FFF792FF6C4875
:1028000001F0ADFC00BF664800686B498842FADA07
:10281000FFF7B4FF01F039FD4FF47A70FFF781FF45
:1028200010BD7047704770477047704770477047DA
:1028300070477047704770477047704770477047E0
:1028400010B54FF4A060FDF77FFD00F04FFEFFF7DD
:102850002BFFFFF7E1FBFFF721FCFFF75AFC642099
:10286000FFF75FFFFFF7ABFD6420FFF75AFF4FF460
:1028700080515248FDF7D3FF4FF400514F48FDF708
:10288000CEFF4FF480414D48FDF7CBFF00F036F905
:102890006420FFF746FF4FF480514848FDF7C1FF21
:1028A0004FF400514548FDF7BAFF4FF480414348CB
:1028B000FDF7B5FF10BD10B501F00AFB00F02EFECC
:1028C00000F096FE00F0E1FE00F02CFF00F0B6FFF5
:1028D000FFF737FDFFF773FD01F0C7FE10BDFFF7EF
:1028E000AFFF6420FFF71DFFFFF7E5FFFFF7B0FC28
:1028F000012240F225513248FFF753FA012240F2FB
:1029000025513048FFF74DFA012240F225512E485B
:10291000FFF747FA012240F225512C48FFF741FA10
:1029200001F0B3FC41F28830FFF7FBFE41F2883042
:10293000FFF7F7FE41F28830FFF7F3FE41F28830EF
:10294000FFF7EFFE4FF480511C48FDF76AFF4FF48C
:1029500000511A48FDF765FF4FF480411748FDF715
:1029600060FF1BE007230E4801210268084601F0C2
:1029700000FE07230B4801210268022001F0F9FD47
:102980000723094801210268032001F0F2FD072313
:10299000064801210268042001F0EBFDE2E7000097
:1029A000F4000020F8000020FC00002000010020BE
:1029B00000004842A8E4FFFF0EF7FFFF000C0140B3
:1029C000003801400044004000480040004C0040F6
:1029D00008B501210420FEF797F94FF48070ADF897
:1029E000000018208DF8030003208DF802006946CE
:1029F000FE48FDF767FE01210420FEF785F94FF43C
:102A00000070ADF8000018208DF8030003208DF849
:102A100002006946F548FDF755FE01210420FEF746
:102A200073F94FF48060ADF8000018208DF80300B2
:102A300003208DF802006946EC48FDF743FE0121B2
:102A40000420FEF761F94FF40060ADF80000182093
:102A50008DF8030003208DF802006946E348FDF776
:102A600031FE08BD00B587B00121C802FEF74CF960
:102A700040F2CF70ADF8140040F2CF20ADF8100056
:102A80000020ADF81600ADF812008DF8180004A96A
:102A9000D748FEF771FA6020ADF800000120ADF8CC
:102AA00002000020ADF808006946D148FEF7A1FAFF
:102AB0000821CF48FEF7ECFE6946CD48FEF7DBFA69
:102AC0000821CB48FEF7EDFE6946C948FEF720FB1A
:102AD0000821C748FEF7F2FE6946C548FEF763FBCA
:102AE0000821C348FEF7F3FE0121C148FEF7A0FD0F
:102AF0000121BF48FEF7A8FD07B000BD10B5FFF7E4
:102B000067FFFFF7AFFF10BD70B506460C46012EFC
:102B100006D0022E0AD0032E0ED0042E18D111E0BA
:102B2000A5B22946B248FFF71BF812E0A5B2294624
:102B3000AF48FFF717F80CE0A5B22946AC48FFF7FD
:102B400013F806E0A5B22946A948FFF70FF800E000
:102B500000BF00BF70BD2DE9F04FA7B005460C4681
:102B60001646A44825904FF08247DFF88C82A34890
:102B700024904FF000094FF0000A0020239022908B
:102B80002190209083461F901E901D901C9005FB65
:102B900005F004FB0400B0F5C87F7DDA284602F09A
:102BA00011F88146E01C02F00DF88246304602F032
:102BB00012F80022924BCDE9180101F07BFECDE91D
:102BC0001A0102F05EF823900021484602F076F8E0
:102BD00002D18C48229015E04946504601F02CFE67
:102BE000159002F03BF8CDE9160103F079FB864A17
:102BF000864BCDE9180101F004FFCDE91A0102F07E
:102C000040F822900021229802F058F804D280491E
:102C1000229801F087FD22905146504601F0DAFDDE
:102C200049461990484601F0D5FD1890199901F0D0
:102C300079FD1A9003F028FD1B90249901F0C4FD42
:102C400083462599239801F0BFFD1F9041464046D9
:102C500001F0C0FD39461B90384601F0BBFD1A90CB
:102C60001B9901F05FFD1E9039464FF0804001F046
:102C7000B1FD41461B9001F0ADFD1D901F99084626
:102C800001F0A8FD59461490584601F0A3FD139099
:102C9000149901F047FD00E021E115901E9901F023
:102CA00093FD16901D9901F0C7FD179001F0D6FF16
:102CB000CDE9180103F0DCF9CDE91A0101F0E1FFDB
:102CC0001C901C9801F0CAFFCDE9080103F066FCD6
:102CD000CDE90C011D9801F0C1FFCDE90A01DDE944
:102CE0000C2301F08EFECDE910011E9801F0B6FF15
:102CF000CDE90E01DDE9102301F0DCFDCDE9140181
:102D0000404601F0ABFFCDE908011C9801F0A6FF99
:102D1000CDE9000103F042FCCDE90401384601F0A1
:102D20009DFFCDE90201DDE9042301F06AFECDE952
:102D30000601DDE9082301F0BDFDCDE90C011F9876
:102D400001F08CFFCDE90A01DDE90C2301F059FE09
:102D5000CDE910011C9801F081FFCDE9080103F0D5
:102D6000CFFBCDE90C013946584601F033FD0990FF
:102D700001F074FFCDE90A01DDE90C2301F041FE09
:102D8000CDE90E01DDE9102301F035FECDE9120198
:102D9000DDE9142301F0A7FECDE9160103F068F97F
:102DA000194A1A4BCDE9180101F02BFECDE91A01A1
:102DB00001F067FF2090209801F050FFCDE9180145
:102DC0001C9801F04BFF104A104BCDE9140101F0A3
:102DD00018FECDE91601DDE9182301F06BFDCDE900
:102DE0001A0101F04EFF21900A4915E00008014048
:102DF000002C01403333A340CDCC04410000F0400F
:102E00000000F83F0000B442CB67791EDCA54C40BF
:102E10000000344300003442229801F059FF11D2DF
:102E20003249229801F04AFF0CD2229801F0E4FEC8
:102E300000B201461B900120FFF766FEC820FFF795
:102E400070FC09E0229801F009FF02460B46CDE92B
:102E50001A0127A002F058F93049219801F038FFF3
:102E600011D22F49219801F029FF0CD2219801F0AD
:102E7000C3FE00B201461B900220FFF745FEC820AA
:102E8000FFF74FFC09E0219801F0E8FE02460B46EF
:102E9000CDE91A0123A002F037F90021209801F0B2
:102EA00017FF11D21E49209801F008FF0CD220987C
:102EB00001F0A2FE00B201461B900320FFF724FEA2
:102EC000C820FFF72EFC0DE0209801F0C7FE024657
:102ED0000B46CDE91A011EA002F016F902E027A068
:102EE00002F012F927B0BDE8F08F00000000524355
:102EF000B6E6BBFA31BDC7B6C8B3ACB3F6B0B2C81C
:102F0000ABCFDED6C6B7B6CEA7283435A1E32D2D7C
:102F1000323130A1E3292C25660D0A00000020C1C2
:102F20000000B442B6E6BBFA32BDC7B6C8B3ACB314
:102F3000F6B0B2C8ABCFDED6C6B7B6CEA7282D3115
:102F400030A1E32D2D3930A1E3292C25660D0A008F
:102F5000B6E6BBFA33BDC7B6C8B3ACB3F6B0B2C8B9
:102F6000ABCFDED6C6B7B6CEA72830A1E32D2D391C
:102F700030A1E3292C25660D0A000000B3ACB3F69E
:102F8000D7A6D7D3D7A5C8A1C1BFB3CC0D0A00001F
:102F90002DE9F0410646002400270025DE48867012
:102FA00000BF07E0DC48405D2044C4B23819C7B216
:102FB000681CC5B2032DF5DBD748C4700771052224
:102FC0000146D648FFF74AFABDE8F0812DE9FC47F3
:102FD0004FF0010840F21F494FF4806AD0488168E1
:102FE000D0A002F091F8CE48C168D3A002F08CF8CE
:102FF000CB48407968B14FF004084FF47849C8488D
:103000008168D2A002F080F8C548C168D4A002F05F
:103010007BF8C3488169D7A002F076F8C048006900
:1030200000EB80004000172190FBF1F00A30C6B29F
:10303000BB48406900EB8000400090FBF1F0C0F11C
:10304000C200C7B2B648806800EB8000400090FB29
:10305000F1F00A30C4B2B248C06800EB8000400012
:1030600090FBF1F0C0F1C200C5B243462A462146AA
:10307000C5A0CDF8009002F047F823463A46314605
:10308000C6A0CDE9005A02F03FF8BDE8FC872DE963
:10309000F0474FF00009CA46002400BF0AE0C548C7
:1030A000005D484400F0FF090AEB090000F0FF0A48
:1030B000601CC4B2102CF2DBBE48807898490870BE
:1030C000BC48C0784870BB4800798870B9484079DE
:1030D000C870B84880790871B648C0794871B54859
:1030E000007AB449497A00EB0120B249897A00EBB1
:1030F0000140B049C97A00EB016089498860AD4858
:10310000007BAC49497B00EB0120AA49897B00EB9D
:103110000140A849C97B00EB01608149C8600846AD
:103120008068283088600846C0682830C860084633
:103130000078012803D1A0A001F0E6FF02E0A4A0DE
:1031400001F0E2FF76484078012803D1A6A001F003
:10315000DBFF02E0AAA001F0D7FF714880780128C8
:1031600003D1ADA001F0D0FF02E0B1A001F0CCFF8F
:103170006B48C078012803D1B3A001F0C5FF02E07D
:10318000B7A001F0C1FF66480079012803D1BAA0B9
:1031900001F0BAFF02E0BEA001F0B6FF604881680E
:1031A000C1A001F0B1FF5E48C168C4A001F0ACFF4E
:1031B0005B4880685A490969401A5949C8610846FC
:1031C000C0684969401A56490862C9694943544A66
:1031D000126A534B1B6A02FB031001F0FCFC07460A
:1031E00003F02CFA054601F020FD4D498969084499
:1031F0004B498861FFF7EAFE494880684849086101
:103200000846C0684861BDE8F0872DE9F0410646F0
:10321000002400270025AE48867000BF07E0AC48B8
:10322000405D2044C4B23819C7B2681CC5B2032D32
:10323000F5DBA748C470077105220146A548FFF7D2
:103240000DF9BDE8F08110B500200022002100BF7B
:1032500007E0A14B5B5C0344D8B21318DAB24B1CF5
:10326000D9B20629F5DB9C4B9B79834215D19A4B49
:10327000DB79934211D1984B9B78974CE47803EB20
:1032800004231BB2954C2380934B1B79924C647999
:1032900003EB04231BB2914C638010BD2DE9F04772
:1032A0000024A246A14600BF0CE08D4810F809009A
:1032B0002044C4B20AEB040000F0FF0A09F1010047
:1032C00000F0FF098648C078001D4845EDDC8448C1
:1032D000C078001D8249085CA0421BD10846C07816
:1032E000401D085C504515D108468078032811D14F
:1032F000097A7B4A527A01EB022108B201F06BFC99
:1033000007460022774B01F0EEFB054601F0B9FCC1
:1033100075490860BDE8F0873E0000200038014094
:103320002C01002070616765322E78302E76616C3A
:103330003D2564FFFFFF000070616765322E783124
:103340002E76616C3D2564FFFFFF000070616765AC
:10335000322E78322E76616C3D2564FFFFFF00002F
:1033600070616765322E78332E76616C3D2564FF7F
:10337000FFFF000070616765322E78342E76616C35
:103380003D2564FFFFFF0000636972732025642CF4
:1033900025642C25642C2564FFFFFF006C696E6595
:1033A0002025642C25642C25642C25642C2564FFA1
:1033B000FFFF00001001002070616765302E74303F
:1033C0002E62636F3D32303136FFFFFF0000000098
:1033D00070616765302E74302E62636F3D36333412
:1033E0003838FFFFFF00000070616765302E7431D0
:1033F0002E62636F3D32303136FFFFFF0000000068
:1034000070616765302E74312E62636F3D363334E0
:103410003838FFFFFF00000070616765302E74329E
:103420002E62636F3D32303136FFFFFF0000000037
:1034300070616765302E74322E62636F3D363334AF
:103440003838FFFFFF00000070616765302E74336D
:103450002E62636F3D32303136FFFFFF0000000007
:1034600070616765302E74332E62636F3D3633347E
:103470003838FFFFFF00000070616765302E74343C
:103480002E62636F3D32303136FFFFFF00000000D7
:1034900070616765302E74342E62636F3D3633344D
:1034A0003838FFFFFF00000070616765302E78300C
:1034B0002E76616C3D2564FFFFFF0000706167653B
:1034C000302E78312E76616C3D2564FFFFFF0000C1
:1034D00043000020004400402A0000203A00002061
:1034E0001E010020000059405001002010B50121AC
:1034F0000846FDF709FC0120FDF73DFA0020FDF725
:1035000070FB0020FCF799FF0020FDF734FA012141
:103510000148FDF7A8F910BD0002300000B589B0E0
:1035200001210C20FDF7F0FB01210846FDF7F9FB16
:1035300001210846FDF7E8FB0121B948FDF793F9A1
:103540000121B848FDF78FF904208DF823004003CE
:10355000ADF8200003208DF8220008A9B248FDF73D
:10356000B1F804208DF81F000820ADF81C000320DE
:103570008DF81E0007A9AD48FDF7A4F84FF6FF70BF
:10358000ADF814000020ADF81000ADF81600ADF84D
:10359000120004A94FF08040FDF7EEFC00231A460C
:1035A00003214FF08040FEF7F6F80420ADF8040048
:1035B0000A20ADF806000120ADF808000020ADF8A3
:1035C0000A00ADF80C0001A94FF08040FDF767FF3D
:1035D00001218807FEF7F2FA47F6FF714FF08040AD
:1035E000FEF7BAFA01218807FEF722F809B000BDFC
:1035F00000B587B001210420FDF786FB01210220E0
:10360000FDF78FFB04208DF81B00C020ADF81800DB
:1036100003208DF81A0006A98348FDF753F84FF6EA
:10362000FF70ADF810000020ADF80C00ADF81200EE
:10363000ADF80E0003A97E48FDF79EFC00231A4654
:1036400003217B48FEF7A7F80420ADF800000A200C
:10365000ADF802000120ADF804000020ADF806002E
:10366000ADF8080069467248FDF719FF012170485E
:10367000FEF7A4FA47F6FF716D48FEF76DFA0121D7
:103680006B48FDF7D5FF07B000BD00B587B001213D
:103690000820FDF739FB01210420FDF742FB04203F
:1036A0008DF81B00C020ADF8180003208DF81A001B
:1036B00006A95E48FDF706F84FF6FF70ADF810005A
:1036C0000020ADF80C00ADF81200ADF80E0003A913
:1036D0005848FDF751FC00231A4603215548FEF7D0
:1036E0005AF80420ADF800000A20ADF802000120CD
:1036F000ADF804000020ADF80600ADF808006946FA
:103700004C48FDF7CCFE01214A48FEF757FA47F630
:10371000FF714848FEF720FA01214648FDF788FF6F
:1037200007B000BD00B587B001210420FDF7ECFA19
:1037300001210820FDF7F5FA04208DF81B00032075
:10374000ADF818008DF81A0006A93748FCF7BAFF43
:103750004FF6FF70ADF810000020ADF80C00ADF88A
:103760001200ADF80E0003A93348FDF705FC002355
:103770001A4603213048FEF70EF80420ADF8000089
:103780000A20ADF802000120ADF804000020ADF8D9
:103790000600ADF8080069462748FDF780FE0121C4
:1037A0002548FEF70BFA47F6FF712348FEF7D4F9D8
:1037B00001212148FDF73CFF07B000BD00204FF07C
:1037C0008041898C47F6FF72501A11464FF08042B3
:1037D000918470470020164924310988A1F5FE40E4
:1037E000FF3847F6FF71124A2432118070470020DB
:1037F00010492431098847F6FF72501A11460D4AC4
:1038000024321180704700200B4924310988A1F52A
:10381000FE40FF3847F6FF71074A24321180704797
:10382000000230000003180000080140000C0140B5
:103830000004004000080040000C00401FB50121BA
:103840001020FDF76EFA42F21070ADF80800482023
:10385000ADF804000020ADF80A00ADF8060001A99B
:10386000FE48FDF789FB01221146FC48FDF7FBFEEF
:1038700036208DF8000001208DF803008DF801003E
:103880008DF802006846FCF764FD0121F348FDF75E
:10389000CFFE1FBD2DE9F041F1480168F1480068F5
:1038A00000F092FFF049086008460168EF480068A0
:1038B00000F090FF0646EE480168EB48006800F013
:1038C00083FF0746EB480168384600F083FF054652
:1038D000314600F027FF0446E3480068E4490860E9
:1038E0002046BDE8F0812DE9F041DE480168DC4862
:1038F000006800F069FFDC49086008460168DB48A1
:10390000006800F067FF0646D9480168D64800689D
:1039100000F05AFF0746D7480168384600F05AFFC2
:103920000546314600F0FEFE0446CF480068D04907
:1039300008602046BDE8F0812DE9F041CE480168DD
:10394000CE48006800F040FFCD4908600846016895
:10395000CC48006800F03EFF0646CB480168C848E6
:10396000006800F031FF0746C8480168384600F09B
:1039700031FF0546314600F0D5FE0446C0480068D8
:10398000C14908602046BDE8F0812DE9F041C048FA
:103990000168C048006800F017FFBF49086008468A
:1039A0000168B848006800F015FF0746BB48016889
:1039B000B948006800F008FF8046B44801684046F6
:1039C00000F008FF0646394600F0ACFE054601F05F
:1039D00013F90446B0480068B0490860204601F079
:1039E000F1F8BDE8F0812DE9F041AD480168AD483E
:1039F000006800F0E9FEAC49086008460168A1488B
:103A0000006800F0E7FE0646A8480168A64800687E
:103A100000F0DAFE0746A6499C48006800F082FEE6
:103A20008046394600F0D6FE0546314600F07AFE63
:103A300004469D4800689D4908602046BDE8F08125
:103A40002DE9F0419B4801689B48006800F0BCFEEE
:103A50009A490860084601688A48006800F0BAFE82
:103A60000646974801689548006800F0ADFE074695
:103A70008F498648006800F055FE8046394600F0C0
:103A8000A9FE0546314600F04DFE04468B4800680D
:103A90008B4908602046BDE8F0812DE9F05F0121E7
:103AA0006E48FEF782F801287DD101216B48FEF7B0
:103AB00099F884480068401C824908608248006880
:103AC000401C814908607F480068022805D1002019
:103AD0007C49086001207D4908607B480068052812
:103AE00002D1002078490860784800680128DBD1BD
:103AF00077480068401C7649086076480068594954
:103B00000860FFF75BFE044601F05CF85A49086064
:103B1000FFF76DFE044601F055F85D490860FFF7B8
:103B200059FE044601F04EF85D490860FFF76BFE50
:103B3000044601F047F85F4908606748006801F0F3
:103B400041F805464C480168284600F0EBFD044664
:103B500001F052F8604908606048006801F032F8EE
:103B600005464B480168284600F0DCFD044601F09C
:103B700043F85A4908605A48006801F023F805469E
:103B800047480168284600F0CDFD044601F034F8AE
:103B9000534908605348006801F014F80546454849
:103BA0000168284600E07DE100F0BCFD044601F01C
:103BB00023F84C4908603048006801F04FF882460D
:103BC000494A4A4B00F01DFF06460F464848006828
:103BD00001F044F8804632463B4600F06BFE044656
:103BE00001F04FF8424908602948006801F036F8B2
:103BF00006463D4A3D4B00F004FF804689463D485D
:103C0000006801F02BF8044642464B4600F052FE95
:103C1000824601F036F8374908602148006801F013
:103C20001DF88046304A314B00F0EBFE04460D464D
:103C30003148006801F012F8064622462B4600F093
:103C400039FE824601F01DF82B49086019480068CA
:103C500001F004F88046244A244B4FE00010004055
:103C60005400002050000020580000207000002068
:103C70005C0000206C000020740000208400002004
:103C800094000020D8000020A4000020D4000020D0
:103C9000780000208800002098000020A800002064
:103CA0007C0000208C0000209C000020AC00002044
:103CB0000000A0418000002090000020A000002013
:103CC000B00000204C00002004010020F000002083
:103CD000EC00002050010020F4000020F80000203B
:103CE000FC000020000100209A9999999999B93F08
:103CF000DC000020E0000020E400002000F081FE55
:103D000004460D466948006800F0A8FF06462246B2
:103D10002B4600F0CFFD824600F0B3FF63490860F8
:103D2000FFF70AFE044662480168204600F0FAFCEC
:103D30005F490860FFF729FE04465E480168204697
:103D400000F0F0FC5B490860FFF74DFE04465A485E
:103D50000168204600F0E6FC57490860FFF770FE56
:103D6000044656480168204600F0DCFC53490860D0
:103D70005348006819282AD1FFF7B5FD04464C487E
:103D80000168204600F0CEFC49490860FFF7ABFD12
:103D9000044648480168204600F0C4FC45490860D4
:103DA000FFF778FD044644480168204600F0BAFC5D
:103DB00041490860FFF76EFD04464048016820460F
:103DC00000F0B0FC3D49086000203D4908603D49D5
:103DD0003748006800F07CFF02D23A483449086056
:103DE00039493348006800F069FF02D2364830494B
:103DF000086034492F48006800F06AFF02D2314859
:103E00002C49086030492B48006800F057FF02D267
:103E10002D48284908602B492748006800F058FFC2
:103E200002D228482449086027492348006800F046
:103E300045FF02D224482049086022491F480068F3
:103E400000F046FF02D21F481C4908601E491B486B
:103E5000006800F033FF02D21B481849086014487C
:103E6000006800F0C9FE04B2204600F0BEF8114818
:103E7000006800F0C1FE04B2204600F0DDF80E48F4
:103E8000006800F0B9FE04B2204600F000F90B48CB
:103E9000006800F0B1FE04B2204600F01FF90020D7
:103EA0000A4908600020BDE8F09F0000E8000020FB
:103EB000C4000020C8000020CC000020D00000205A
:103EC000EC00002000007A4400007AC4F0000020DA
:103ED00000B58BB001211C20FCF716FF012148031F
:103EE000FCF712FF01210846FCF70EFF0121FA48FA
:103EF000FCF7B9FC10208DF82B003020ADF828001D
:103F000003208DF82A000AA9F448FCF7DBFB1020F7
:103F10008DF827004FF44C70ADF8240003208DF885
:103F2000260009A9EE48FCF7CDFB10208DF82300F0
:103F30000C20ADF8200003208DF8220008A9E948E4
:103F4000FCF7C0FB18208DF81F004FF47070ADF81F
:103F50001C0003208DF81E0007A9E248FCF7B2FB05
:103F60004FF47A70ADF814000020ADF81000ADF8F1
:103F70001600ADF8120004A9DB48FCF7FDFF684607
:103F8000FDF72FFB6020ADF800000120ADF8020026
:103F90000020ADF808006946D348FDF72AF86946C5
:103FA000D148FDF768F86946CF48FDF7B1F8694692
:103FB000CD48FDF7F8F80821CB48FDF769FC08214A
:103FC000C948FDF76EFC0821C748FDF777FC0821BA
:103FD000C548FDF77CFC0121C348FDF729FB012101
:103FE000C148FDF731FB0BB000BD10B50446002CF5
:103FF0000CDD2021BA48FCF712FC1021B848FCF770
:1040000010FCA1B2B848FDF7ABFD14E0002C0EDAAD
:10401000604204B22021B248FCF703FC1021B048F2
:10402000FCF7FDFBA1B2B048FDF79AFD03E00021CB
:10403000AD48FDF795FD10BD10B50446002C0EDD12
:104040004FF48071A648FCF7EAFB4FF40071A448D6
:10405000FCF7E7FBA1B2A448FDF784FD16E0002CB5
:1040600010DA604204B24FF480719D48FCF7D9FB2E
:104070004FF400719A48FCF7D2FBA1B29A48FDF7C1
:1040800071FD03E000219848FDF76CFD10BD10B5EF
:104090000446002C0CDD20219048FCF7C0FB1021C9
:1040A0008E48FCF7BEFBA1B28F48FDF75DFD14E022
:1040B000002C0EDA604204B220218848FCF7B1FBE4
:1040C00010218648FCF7ABFBA1B28748FDF74CFDF9
:1040D00003E000218448FDF747FD10BD10B50446FC
:1040E000002C0CDD04217F48FCF799FB08217D485A
:1040F000FCF797FBA1B27C48FDF738FD14E0002CDB
:104100000EDA604204B204217648FCF78AFB0821EB
:104110007448FCF784FBA1B27348FDF727FD03E068
:1041200000217148FDF722FD10BD704908607049FB
:1041300008607049086070490860704780F000416D
:104140006A4A116080F00041694A116080F00041C4
:10415000684A116080F00041674A1160704780F042
:104160000041624A1160624908606249086080F05B
:104170000041614A116070475C49086080F000416D
:104180005B4A116080F000415A4A11605A49086048
:10419000704710B500215948006800F08FFD17D115
:1041A0000020574908605748FFF71FFF5548FFF7A1
:1041B00043FF4FF49670FFF76AFF4FF49670FFF7D6
:1041C0008DFF51484D4908604FF42F70FEF7A9FA52
:1041D0004E494A48006800F071FD17D10020484957
:1041E00008604848FFF701FF4648FFF725FF4FF4F6
:1041F0009670FFF74CFF4FF49670FFF76FFF0020AB
:104200003E4908604FF42F70FEF78BFA10BD10B5D1
:1042100000213A48006800F051FD17D100203849CC
:1042200008604FF49670FFF7E0FE4FF49670FFF7CA
:1042300003FF3448FFF72BFF3248FFF74FFF3348A7
:104240002E4908604FF42F70FEF76BFA2E492B4869
:10425000006800F033FD17D10020294908604FF4B1
:104260009670FFF7C2FE4FF49670FFF7E5FE254803
:10427000FFF70DFF2348FFF731FF00201F490860BB
:104280004FF42F70FEF74DFA10BD10B50020FFF768
:104290004CFF04211348FCF7C2FA08211148FCF72F
:1042A000BEFA20210D48FCF7BAFA10210B48FCF7A2
:1042B000B6FA4FF480710A48FCF7B1FA4FF4007176
:1042C0000748FCF7ACFA20210548FCF7A8FA1021B2
:1042D0000348FCF7A4FA10BD0002300000080140BA
:1042E000000C014000100140003401408400002017
:1042F000880000208C000020900000205400002046
:10430000EC000020D4FEFFFF0000B4C20000B44265
:1043100008B501210820FCF7F7FC01211020FCF76B
:10432000F3FC14208DF8030003208DF80200012017
:10433000ADF800006946F848FCF7C4F92020ADF854
:1043400000006946F548FCF7BDF901222021F34839
:10435000FCF769FA01221146EF48FCF764FA08BD40
:1043600010B501221146EC48FCF75DFA012220212C
:10437000EA48FCF758FA00220121E748FCF753FA13
:1043800000222021E548FCF74EFA10BD10B50022AE
:104390000121E148FCF747FA01222021DF48FCF720
:1043A00042FA01221146DC48FCF73DFA10BD70B517
:1043B0000546002413E08020204100EA0502012187
:1043C000D548FCF730FA01222021D448FCF72BFA1B
:1043D00000222021D148FCF726FA601CC4B2082C28
:1043E000E9DB01222021CD48FCF71DFA0022202123
:1043F000CA48FCF718FA70BD10B50446FFF7B0FFC5
:104400007820FFF7D4FF0020FFF7D1FF2046FFF709
:10441000CEFFFFF7BBFF10BD10B50446FFF7A0FFAE
:104420007820FFF7C4FF4020FFF7C1FF2046FFF7C9
:10443000BEFFFFF7ABFF10BD70B505460C4645F05B
:10444000B000FFF7D9FF102141EA1410FFF7D4FFA5
:1044500004F00F00FFF7D0FF70BD70B500240EE030
:1044600000212046FFF7E8FF002504E00020FFF7C9
:10447000D3FF681CC5B2802DF8DB601CC4B2082CC9
:10448000EEDB70BD2DE9F04105460E461746721E63
:10449000D206110E6A1E5206100EFFF7CDFF002441
:1044A00009E0A7F120019E4A02EB0111085DFFF728
:1044B000B3FF601CC4B2082CF3DB721ED206110ECF
:1044C0006A1E012303EB4202D0B2FFF7B5FF0024BE
:1044D0000BE0A7F12001924A02EB011204F108015E
:1044E000505CFFF799FF601CC4B2082CF1DBBDE8FB
:1044F000F0812DE9F04107460E461546002407E0FD
:104500002A5D3019C1B23846FFF7BCFF601CC4B247
:10451000285D0028F4D1BDE8F08110B502460120E5
:1045200000E050430B1EA1F10101FAD110BD2DE9AD
:10453000F04780460E4617461D46002415E0281B0E
:10454000411E0A20FFF7E9FFB7FBF0F00A21B0FB9C
:10455000F1F201FB120000F130093019C1B24A46F4
:104560004046FFF78FFF601CC4B2AC42E7DBBDE8FA
:10457000F0872DE9F0478146884615461E46002DF6
:1045800006DB2B2241464846FFF77CFF2F4605E01D
:104590002D2241464846FFF775FF6F42002417E081
:1045A000301B411E0A20FFF7B8FFB7FBF0F00A21CD
:1045B000B0FBF1F201FB120000F1300A08EB04003D
:1045C000401CC1B252464846FFF75CFF601CC4B2B3
:1045D000B442E5DBBDE8F0872DE9F04781460E46A1
:1045E00090461F4600241DE0381B411E1020FFF797
:1045F00094FFB8FBF0F000F00F050A2D08DA05F182
:104600003000C2B23019C1B24846FFF73BFF07E0A5
:1046100005F13700C2B23019C1B24846FFF732FF88
:10462000601CC4B2BC42DFDBBDE8F0872DE9F04777
:1046300080460E4617461D46002412E0281B411EE8
:104640000220FFF76AFFB7FBF0F000F0010000F175
:1046500030093019C1B24A464046FFF713FF601CCB
:10466000C4B2AC42EADBBDE8F08770B5002406E0D6
:10467000002500E06D1CB5F57A7FFBD3641CB4F512
:104680007A7FF5D3FFF744FEAE20FFF7B5FED520C5
:10469000FFF7B2FE8020FFF7AFFEA820FFF7ACFEC9
:1046A0003F20FFF7A9FED320FFF7A6FE0020FFF76B
:1046B000A3FE4020FFF7A0FEA120FFF79DFEC8202B
:1046C000FFF79AFEDA20FFF797FE1220FFF794FE1D
:1046D0008120FFF791FECF20FFF78EFED920FFF754
:1046E0008BFEF120FFF788FEDB20FFF785FE3020F0
:1046F000FFF782FEA420FFF77FFEA620FFF77CFED7
:104700008D20FFF779FE1420FFF776FEAF20FFF72C
:1047100073FEFFF7A2FE70BD000C014000100140C7
:10472000B4660008F0B480EA0102D40F4200B2EB94
:10473000410F02D20246084611464A0042D0C30D3C
:10474000DDB2C1F3C752AD1A202D35DAC1F316011F
:1047500041F4000204B15242C5F1200602FA06F10A
:104760002A411044B3EBD05F23D0C4B1012DA0EB9C
:10477000C35009DCF0BC4FF0004202EAC352DBB286
:1047800000F5000000F02FBB400000F1807000EB4E
:10479000C350A0F1807040EAD170490009E0490897
:1047A00041EAC071A0EBC35000F50000400800EBE7
:1047B000C350F0BC00F00EBB6142012202EB41018C
:1047C000001BF6E7F0BC704781F00041AAE780F0DB
:1047D0000040A7E780EA010210B502F00043400064
:1047E00022D04A001FD0010E01EB1261C0F3560027
:1047F000C2F3560240F4000042F40002A0FB022083
:1048000000047F39140400D0401C50EA124001D447
:104810004000491EC2B20C0604EBD010401C4008F8
:10482000802A02D003E0002010BD20F00100002902
:1048300000DA0020184310BD30B480EA010202F013
:10484000004530F0004221F0004013D090B1C30D7C
:10485000D40DC2F31601C0F31600E41A41F40001AE
:1048600040F400027D34914201D3641C00E0490011
:10487000002C02DA30BC002070474FF40000002307
:10488000914201D3891A034340084FEA4101F7D10D
:1048900051B1914202D14FF0004105E002D24FF0F8
:1048A000010101E06FF0010103EBC450284430BC6A
:1048B00000F090BA2DE9FE4F804681EA0300C00F58
:1048C0000C46009021F0004123F00045B8EB0200B7
:1048D000A94105D24046214690461C460B46024659
:1048E00023F00040104347D0270DC7F30A00C3F35D
:1048F0000A510290401A019040286BDAC3F313006A
:1049000040F4801B0098924620B10023D2EB030AAA
:1049100063EB0B0B01985946C0F14002504600F082
:1049200028FA06460D4650465946019A00F040FACC
:1049300010EB08006141002487EA115284EAE77312
:104940001A4340D0009A62B3019A012A4FEA0752F3
:1049500015DC001B61EB02014FF0004202EA075236
:10496000CDE90042001C41F5801132462B4600F093
:10497000A6FA03B0BDE8F08F40462146F9E7001BD8
:1049800061EB0201001C41F5801300185B41201807
:10499000A2F5001747EB030140EAD570B6196D4147
:1049A00011E06D084FEA360645EAC0754FEA075236
:1049B000001B61EB0201001C41F5801149084FEA20
:1049C00030000019514132462B4603B0BDE8F04F8C
:1049D00000F066BA0098012240000023D0EB0202EA
:1049E00063EBE073009821464FEAE074B8EB0000F7
:1049F00061EB0401E9E783F000435BE781F00041EC
:104A000058E72DE9FE4F81EA030404F0004421F049
:104A1000004100944FF0000B23F0004350EA0104E2
:104A20005ED052EA03045BD0C3F30A54C1F30A55C3
:104A30002C44A4F2F3340194A0FB0254C1F31301FB
:104A400041F48011C3F3130343F4801301FB0244C8
:104A500000FB034E840A970A44EA815447EA8357CD
:104A6000A4FB076802958D0A05FB07854FEA932C86
:104A700004FB0C542705029D4FEA065847EA1637F7
:104A8000B5EB08056EEB070C870E920E47EA81170F
:104A900042EA8312A7FB0201B6EB0B0164EB0004B0
:104AA0002B0D43EA0C335E1844EB1C50DA4651469A
:104AB000E7FB0201C5F313044FEA0B3343EA145337
:104AC0004FEA0432019C43EA0603A4F10C04029469
:104AD000009CCDE900B400F0F2F903B0BDE8F08F1E
:104AE00000200146F9E72DE9F04D81EA030404F0C6
:104AF000004B21F0004514464FF0000A23F000411E
:104B000050EA050220D054EA01021DD0C5F30A572D
:104B10000246C5F31303C1F31300C1F30A5640F470
:104B2000801543F48013A7EB0608101BD64608F245
:104B3000FD3873EB050002D308F1010801E092187B
:104B40005B41B8F1000F03DA00200146BDE8F08DAB
:104B500000204FF48011064684460EE0171B73EBCD
:104B6000050705D3121B63EB050306434CEA010C52
:104B700049084FEA300092185B4150EA0107EDD135
:104B800052EA030012D082EA040083EA05010843D6
:104B900005D0101BAB4106D20122002306E0002203
:104BA0004FF0004302E06FF0010253101AEB0600D1
:104BB0004CEB085110EB0A0041EB0B01BDE8F04D46
:104BC00000F06EB9C10F80EAE0700844CA0796236E
:104BD000002100F008B90EB5C10F80EAE07008446A
:104BE000CA07002140F233438DE80E000A460B4607
:104BF00000F065F903B000BD00F0004220F0004075
:104C0000C10DC0F3160040F400007F2901DA002036
:104C10007047962903DCC1F19601C84001E096393E
:104C20008840002AF4D040427047C1F30A5210B5C0
:104C3000C1F3130140F2FF3341F480119A4201DACB
:104C4000002010BD40F233439A42A2F2334203DC0B
:104C5000524200F09DF810BD904010BD00F000429F
:104C600030F000400AD0C10D01F56071C0F31600AC
:104C700042EA0151C2084007114370470020014633
:104C8000704701F0004330B421F0004150EA0102C6
:104C900006D00A0DA2F56072C1F31301002A02DCEE
:104CA00030BC00207047440F44EAC104C100E01842
:104CB00030BC00EBC25000F08DB80000002801DBD2
:104CC000C0F10040002901DBC1F100418142704781
:104CD000002801DBC0F10040002901DBC1F10041E7
:104CE0008842704730B50B4601460020202201243F
:104CF00009E021FA02F59D4205D303FA02F5491BAA
:104D000004FA02F52844151EA2F10102F1DC30BDBF
:104D10002DE9F05F0546002092469B4688460646F0
:104D2000814640241BE0284641464746224600F083
:104D30002FF853465A46C01A914110D311461846CF
:104D4000224600F016F82D1A67EB01084F4622465E
:104D50000120002100F00DF817EB00094E41201E44
:104D6000A4F10104DFDC484631462A464346BDE84B
:104D7000F09F202A04DB203A00FA02F1002070475D
:104D80009140C2F1200320FA03F319439040704789
:104D9000202A04DB203A21FA02F00021704721FA90
:104DA00002F3D040C2F120029140084319467047F7
:104DB000202A06DBCB17203A41FA02F043EAE073DF
:104DC00006E041FA02F3D040C2F1200291400843CC
:104DD000194670470029A8BF7047401C490008BF0A
:104DE00020F00100704710B4B0FA80FC00FA0CF01B
:104DF00050EA010404BF10BC704749B1CCF1200453
:104E000021FA04F411FA0CF118BF012121430843DF
:104E1000A3EB0C01CB1D4FEA00614FEA102042BF0B
:104E2000002010BC704700EBC35010440029A4BF01
:104E300010BC7047401C490008BF20F0010010BCA6
:104E40007047F0B4002802DCF0BC00207047C0F3CB
:104E5000C751C0F3160040F40000CA0701D140005A
:104E6000491E3F2202EB6105002211464FF4000665
:104E700026FA01F31344D418844201D8001B1A46C1
:104E80004000491C1729F3DD5100814202D24FF046
:104E9000FF3100E0002102EBC550F0BCFFF79ABFE4
:104EA00010B5141E73F1000408DA401C41F1000132
:104EB00092185B411A4301D120F0010010BD2DE989
:104EC000F04D92469B4611B1B1FA81F202E0B0FA80
:104ED00080F220329046FFF74CFF04460F4640EA2E
:104EE0000A0041EA0B0153465A46084313D01146C3
:104EF00053EA010019D0C8F140025046FFF748FFBD
:104F000005460E46504659464246FFF732FF0843D3
:104F100005D0012004E020463946BDE8F08D002090
:104F2000054346EAE0762C4337430A986305E40AD2
:104F3000A0EB08000022FD0A44EA47540A3002D5DB
:104F400000200146E9E7010510196941DDE908453E
:104F500000196941BDE8F04DA2E770B521F00043AA
:104F600003430CD0C1F30A550024D5EB040564EBD0
:104F70000403D617AD1AB34102DB0020014670BD11
:104F8000201841EB025170BD2DE9F04D00231A4667
:104F90001B1A8A4103DB00200146BDE8F08DC1F3F6
:104FA0000A52C1F3130141F480154FF0000BD107F1
:104FB00002D100186D41521E0027044640F2FF1135
:104FC000384601EB620A3E468046024600204FF416
:104FD0008011FFF7DDFEC2197141BB1846EB0100DD
:104FE000B4EB030C75EB000C04D3E41A65EB00057D
:104FF00017460E46241908F101006D4180463428F9
:10500000E3DDF91946EB0600091BA84103D24FF076
:10501000FF32134601E0002213461BEB070046EB6C
:105020000A51BDE8F04DFFF73BBFC1F30A52C1F38F
:10503000130140F2FF3341F480119A4202DA00205A
:105040000146704740F233439A42A2F2334202DCF7
:105050005242FFF79DBEFFF78CBE000030B5041E24
:1050600071F1000404DB4FF00044404264EB0101A5
:10507000141E73F1000405DB1C464FF0004352423E
:1050800063EB0403994208BF904230BD064C074DC4
:1050900006E0E06840F0010394E807009847103408
:1050A000AC42F6D3FBF748F8B06E0008D06E0008AB
:1050B0000EB540F2334102910021CDE900110A46BC
:1050C0000B46FFF7FCFE03B000BD70B5C1F30A52FA
:1050D00001F000450024C1F3130140F2FF3341F415
:1050E00080119A4201DA002070BD40F233439A42A7
:1050F000A2F2334203DC5242FFF74AFE00E0904046
:105100002C43F1D0404270BD0FB4054B10B503A93C
:10511000044A029800F014FC10BC5DF814FB000077
:10512000F324000808010020490050EAC12018BFFC
:1051300004204A0D18BF40F0010040F2FF72B2EBAC
:10514000515F08BF40F00200012808BF05207047EA
:105150002DE9F74F144694B00021C4E902111599C6
:10516000079121F00045C9498D4206DC1599C4E933
:10517000000117B00020BDE8F08FC549DFF814A387
:10518000A9423CDD0799C44E0029C44FC44A159971
:10519000534619DDFFF72FFC554506D0C14AC24BD7
:1051A000FFF729FCC4E900010AE04FF0D352BE4BDF
:1051B000FFF721FC32463B46FFF71DFCC4E9000126
:1051C00017B00120BDE8F08FFFF774FB554506D0FE
:1051D000B44AB54BFFF76EFBC4E900010AE04FF09B
:1051E000D352B14BFFF766FB32463B46FFF762FBFB
:1051F000C4E9000117B04FF0FF30BDE8F08FAB49B4
:10520000A942159978DB21F0004183468846A84AD7
:10521000A84BFFF7F6FB0022A74BFFF74BFBFFF76E
:1052200054FF0990FFF7D7FC06460F469C4A5346A9
:10523000FFF7E7FB43465A46FFF7E0FB80468A4606
:10524000984A994B30463946FFF7DBFB2A0D01257A
:105250000B9242465346FFF7D1FB032DC4E90001F0
:1052600039D00B98C1F30A51401A05EB4511113999
:10527000814230DA9148C346784400EB0510CDF8FE
:105280000CA00C90D0E9002330463946FFF7B9FB5B
:1052900002460B460491069058460399FFF7ABFB74
:1052A00080468A4602460B4658460399FFF7A3FB01
:1052B000049B069AFFF79FFB83460C98039139469F
:1052C000D0E902233046FFF79CFB5A46039BFFF7C9
:1052D00092FB6D1CBDE707980028A2BF099817B084
:1052E000BDE8F08F616881F000416160099817B0F6
:1052F0004042BDE8F08FFFE784461598C1F31301E3
:10530000C0F30A50A0F2F5304FEA601800F01F0613
:10531000C6F12000139000200690079041F4801EF3
:1053200005206D4676B1664A08EB00017A4452F8D2
:10533000213002EB8101B3404A68139922FA01F14E
:10534000194305E05F4908EB0002794451F8221047
:10535000A1FB0E27A1FB0C131A449A4234BF012370
:10536000002303EB070A05EB8003D3E901B70F44E1
:105370008F4234BF0121002193448B4411B19345E6
:1053800002D903E0934501D2012100E00021C3E9E5
:1053900001B7514445F82010011EA0F10100C1DC05
:1053A0000298059F00F10050800F12900298DDE9ED
:1053B00003568000FFF70FFC834628460D91FFF748
:1053C00077FE6FF01D02FFF7C8FDCDE90E013046F4
:1053D000FFF76EFE6FF03D02FFF7BFFD80468A4685
:1053E0003846FFF765FE6FF05D02FFF7B6FD074632
:1053F000424653461191FFF75DFADDE90E23FFF7B0
:1054000059FA5A460D9BFFF755FA00250E465A46A3
:1054100028460D9BFFF7EFFADDE90E23FFF7EBFAC5
:1054200042465346FFF7E7FA3A46119BFFF7E6FA82
:10543000DFF898A0244A5346FFF7E3FA0746884668
:10544000234A244B31462846FFF7DBFA3A464346C7
:10545000FFF730FA074688464FF0A84253463146D8
:105460002846FFF7CEFA3A464346FFF723FA159A45
:1054700012F0004F04D0129A81F000415242129271
:10548000C4E90001129817B0BDE8F08FFB21E93F95
:105490007CD90240FB21F93F7370032E8A19A33B8C
:1054A000000040543163621A61B4D03DFB213941A0
:1054B00083C8C96D305FE43F0000E03F441B00003B
:1054C000C01A0000A21A0000182D4454FB21F93D17
:1054D0003326A611460B113C2DE9FF4D21F0004863
:1054E00007460C46B8F1795F08DAFFF7EEFD0028B1
:1054F00001BF0020324904B0BDE8F08D3A46234692
:1055000010461946FFF77DFA054602462D480E461D
:105510000B460621784400F05DF82A463346FFF733
:1055200070FADDE9022382468B4638462146FFF7B2
:1055300068FA04460F4652465B4628463146FFF756
:1055400060FA22463B46FFF756FA07468A464FF076
:10555000FF3228463146FFF700FD1B4A90450ADA24
:105560003A465346FFF747FA04B00022BDE8F04D33
:10557000134BFFF743BA154A4245A8BFA8F50015DB
:105580004FF00004B8BF124D22462B46FFF733FA06
:105590000646884622462B4600200949FFF72BFA8B
:1055A00004460D463A46534630464146FFF723FA35
:1055B00004B022462B46BDE8F04DFFF71FBA0000AD
:1055C0000000F03F781800003333D33F0000E93F7C
:1055D0000000D23F2DE9F0414F1E00EBC701044609
:1055E000D1E9000115461E4637F006020DD02A46C5
:1055F0003346FFF706FA7F1E04EBC703D3E9002307
:10560000FFF758F937F00602F1D1022F25D0042F09
:1056100013D0062F18BFBDE8F0812A463346FFF7A6
:10562000F0F9D4E90A23FFF745F92A463346FFF794
:10563000E8F9D4E90823FFF73DF92A463346FFF796
:10564000E0F9D4E90623FFF735F92A463346FFF798
:10565000D8F9D4E90423FFF72DF92A463346FFF79A
:10566000D0F9D4E90223FFF725F92A463346FFF79C
:10567000C8F9D4E90023BDE8F041FFF71BB90000E9
:105680002DE9FF4D054621F0004084B00C46B0F1F5
:10569000795F0BDA2846FFF747FD042808BF00F0C2
:1056A0006FF8284608B02146BDE8F08D2A460B4623
:1056B0001046FFF7A6F906460F462A462346FFF78F
:1056C000A0F9804626488A4632463B460521784462
:1056D000FFF780FF83461098029160B3214A224B66
:1056E00040465146FFF78DF9CDE900015A46404644
:1056F0005146029BFFF785F982468846DDE906019F
:105700004FF0FF32FFF729FC52464346FFF773F98B
:1057100032463B46FFF775F9DDE90623FFF76BF9E3
:10572000DDE90023FFF767F908B02A462346BDE804
:10573000F04DFFF763B90B465A4630463946FFF73E
:1057400060F9084A084BFFF7B5F842465346FFF7A1
:1057500058F908B02A462346BDE8F04DFFF7AAB82D
:10576000B6170000495555555555C5BF0122FFF7DD
:10577000F4BB0022134610461146FFF7B4B90000EF
:10578000024A00201107FFF7E8BB000001FDFFFF00
:1057900002E008C8121F08C1002AFAD170477047FA
:1057A000002001E001C1121F002AFBD17047000058
:1057B00001490860704700000C0100202DE9FF5FDF
:1057C00082B00021DDE90430020DDDF840B0034372
:1057D00018D044F61050A2F2FF324243151411982B
:1057E00001281FD0A5EB0B00401C5FEA000A4FF018
:1057F00000064E4FDFF83891B046504615D5CAF135
:10580000000413E0119801244AA3012801D16FEA92
:105810000B010298119AC0E90031C0E9024206B0BA
:10582000BDE8F09FCBF10000DFE704460021404ACD
:10583000491842EB0450CDE9001012E0E00707D010
:1058400032463B4640464946FFF7DBF880468946EC
:1058500032463B4610461946FFF7D3F806460F4638
:105860006410002CEAD1DDE90401DDE90023BAF17E
:10587000000F06DAFFF7C5F842464B46FFF7C1F8BE
:1058800005E0FFF730F942464B46FFF72CF9044696
:105890000E460022284BFFF7E1FB03D84FF0FF3004
:1058A000014607E00022254B20463146FFF702F86B
:1058B000FFF7BBFB102409E0002C0ADB0A220023BF
:1058C000FFF726FA039B30321A55641E50EA010294
:1058D000F2D1641C039AC4F111031444119A012AF1
:1058E00003D0012208430DD10AE0084304D0002070
:1058F0004FF0110B119072E7A3EB0B056D1E0DE03D
:105900005B4504DD4FF0000205F1010504E003DA18
:105910004FF00002A5F10105002AECD00298119980
:10592000C0E90231C0E9004579E7000000001440F9
:105930000000F03F300000000000F0430000E03FB6
:105940002DE9FF4F95B09B468946064600250FE29C
:10595000252877D100242746F84A0121059400E044
:10596000044316F8013F203B01FA03F01042F7D13F
:1059700030782A2811D06FF02F033078A0F1300250
:10598000092A16D8059A44F0020402EB820203EBBE
:1059900042021044761C0590EFE759F8042B05925B
:1059A000002A03DA504244F40054059044F0020403
:1059B000761C30782E2816D116F8010F44F0040416
:1059C0002A280DD06FF02F023078A0F13003092B78
:1059D00009D807EB870302EB4303C718761CF3E7EC
:1059E00059F8047B761C30786C280FD006DC4C28E4
:1059F00017D068280DD06A2814D104E0742810D07C
:105A00007A280FD10DE044F400140AE044F4801425
:105A100001E044F440147278824202D104F580140B
:105A2000761C761C307866280BD013DC582877D08B
:105A300009DC002875D04528F6D04628F4D0472840
:105A40001AD19DE118E0632835D0642879D0652803
:105A500012D195E1702873D008DC6728F1D069284D
:105A60006FD06E280DD06F2806D1B5E073282CD0EA
:105A7000752875D0782874D05A46179990476D1CB0
:105A800075E1C4F30250022809D003280DD0D9F8DB
:105A9000001004280DD00D6009F1040967E1D9F860
:105AA0000010EA17C1E90052F6E7D9F800100D809E
:105AB000F2E70D70F0E719F8041B8DF800100020D4
:105AC0008DF80100EA46012003E059F804AB4FF0DD
:105AD000FF3061074FF0000102D40DE008F1010131
